{
  "address": "0xe7f1725E7734CE288F8367e1Bb143E90bb3F0512",
  "abi": [
    {
      "inputs": [
        {
          "internalType": "address",
          "name": "_priceFeed",
          "type": "address"
        }
      ],
      "stateMutability": "nonpayable",
      "type": "constructor"
    },
    {
      "inputs": [],
      "name": "FundMe__CallFailed",
      "type": "error"
    },
    {
      "inputs": [],
      "name": "FundMe__InvalidAmount",
      "type": "error"
    },
    {
      "inputs": [],
      "name": "FundMe__NotOwner",
      "type": "error"
    },
    {
      "stateMutability": "payable",
      "type": "fallback"
    },
    {
      "inputs": [],
      "name": "I_OWNER",
      "outputs": [
        {
          "internalType": "address",
          "name": "",
          "type": "address"
        }
      ],
      "stateMutability": "view",
      "type": "function"
    },
    {
      "inputs": [],
      "name": "MINIMUM_USD",
      "outputs": [
        {
          "internalType": "uint256",
          "name": "",
          "type": "uint256"
        }
      ],
      "stateMutability": "view",
      "type": "function"
    },
    {
      "inputs": [
        {
          "internalType": "address",
          "name": "",
          "type": "address"
        }
      ],
      "name": "addressToAmountFunded",
      "outputs": [
        {
          "internalType": "uint256",
          "name": "",
          "type": "uint256"
        }
      ],
      "stateMutability": "view",
      "type": "function"
    },
    {
      "inputs": [],
      "name": "fund",
      "outputs": [],
      "stateMutability": "payable",
      "type": "function"
    },
    {
      "inputs": [
        {
          "internalType": "uint256",
          "name": "",
          "type": "uint256"
        }
      ],
      "name": "funders",
      "outputs": [
        {
          "internalType": "address",
          "name": "",
          "type": "address"
        }
      ],
      "stateMutability": "view",
      "type": "function"
    },
    {
      "inputs": [],
      "name": "priceFeed",
      "outputs": [
        {
          "internalType": "contract AggregatorV3Interface",
          "name": "",
          "type": "address"
        }
      ],
      "stateMutability": "view",
      "type": "function"
    },
    {
      "inputs": [],
      "name": "withdraw",
      "outputs": [],
      "stateMutability": "nonpayable",
      "type": "function"
    },
    {
      "stateMutability": "payable",
      "type": "receive"
    }
  ],
  "transactionHash": "0xc435034f79151283face445e34d1bfe8ec382acd4e859aa1f5e5eeb5e17618f6",
  "args": [
    "0x5FbDB2315678afecb367f032d93F642f64180aa3"
  ],
  "numDeployments": 1,
  "solcInputHash": "6359b2a6360ac05568b5b3e0c15a4c70",
  "bytecode": "0x60a060405234801561001057600080fd5b50604051610f3d380380610f3d83398181016040528101906100329190610110565b80600260006101000a81548173ffffffffffffffffffffffffffffffffffffffff021916908373ffffffffffffffffffffffffffffffffffffffff1602179055503373ffffffffffffffffffffffffffffffffffffffff1660808173ffffffffffffffffffffffffffffffffffffffff16815250505061013d565b600080fd5b600073ffffffffffffffffffffffffffffffffffffffff82169050919050565b60006100dd826100b2565b9050919050565b6100ed816100d2565b81146100f857600080fd5b50565b60008151905061010a816100e4565b92915050565b600060208284031215610126576101256100ad565b5b6000610134848285016100fb565b91505092915050565b608051610dde61015f6000396000818161033e01526105ba0152610dde6000f3fe6080604052600436106100745760003560e01c8063741bef1a1161004e578063741bef1a1461010c57806378dff77b14610137578063b60d428814610162578063dc0d3dff1461016c57610083565b80633ccfd60b1461008d5780633e47d6f3146100a45780636b69a592146100e157610083565b36610083576100816101a9565b005b61008b6101a9565b005b34801561009957600080fd5b506100a261033c565b005b3480156100b057600080fd5b506100cb60048036038101906100c691906108de565b61056d565b6040516100d89190610924565b60405180910390f35b3480156100ed57600080fd5b506100f6610585565b6040516101039190610924565b60405180910390f35b34801561011857600080fd5b50610121610592565b60405161012e919061099e565b60405180910390f35b34801561014357600080fd5b5061014c6105b8565b60405161015991906109c8565b60405180910390f35b61016a6101a9565b005b34801561017857600080fd5b50610193600480360381019061018e9190610a0f565b6105dc565b6040516101a091906109c8565b60405180910390f35b61021c6040518060400160405280601081526020017f436f6e76657273696f6e20726174653a00000000000000000000000000000000815250610217600260009054906101000a900473ffffffffffffffffffffffffffffffffffffffff163461061b90919063ffffffff16565b610657565b6802b5e3af16b188000061025b600260009054906101000a900473ffffffffffffffffffffffffffffffffffffffff163461061b90919063ffffffff16565b1015610293576040517fe12c320e00000000000000000000000000000000000000000000000000000000815260040160405180910390fd5b6000339080600181540180825580915050600190039060005260206000200160009091909190916101000a81548173ffffffffffffffffffffffffffffffffffffffff021916908373ffffffffffffffffffffffffffffffffffffffff16021790555034600160003373ffffffffffffffffffffffffffffffffffffffff1673ffffffffffffffffffffffffffffffffffffffff16815260200190815260200160002081905550565b7f000000000000000000000000000000000000000000000000000000000000000073ffffffffffffffffffffffffffffffffffffffff163373ffffffffffffffffffffffffffffffffffffffff16146103c1576040517f579610db00000000000000000000000000000000000000000000000000000000815260040160405180910390fd5b60005b6000805490508110156104665760008082815481106103e6576103e5610a3c565b5b9060005260206000200160009054906101000a900473ffffffffffffffffffffffffffffffffffffffff1690506000600160008373ffffffffffffffffffffffffffffffffffffffff1673ffffffffffffffffffffffffffffffffffffffff168152602001908152602001600020819055505080806001019150506103c4565b50600067ffffffffffffffff81111561048257610481610a6b565b5b6040519080825280602002602001820160405280156104b05781602001602082028036833780820191505090505b50600090805190602001906104c69291906107ca565b5060003373ffffffffffffffffffffffffffffffffffffffff16476040516104ed90610acb565b60006040518083038185875af1925050503d806000811461052a576040519150601f19603f3d011682016040523d82523d6000602084013e61052f565b606091505b505090508061056a576040517fa6139a6400000000000000000000000000000000000000000000000000000000815260040160405180910390fd5b50565b60016020528060005260406000206000915090505481565b6802b5e3af16b188000081565b600260009054906101000a900473ffffffffffffffffffffffffffffffffffffffff1681565b7f000000000000000000000000000000000000000000000000000000000000000081565b600081815481106105ec57600080fd5b906000526020600020016000915054906101000a900473ffffffffffffffffffffffffffffffffffffffff1681565b600080610627836106f3565b90506000670de0b6b3a764000085836106409190610b0f565b61064a9190610b80565b9050809250505092915050565b6106ef828260405160240161066d929190610c41565b6040516020818303038152906040527fb60e72cc000000000000000000000000000000000000000000000000000000007bffffffffffffffffffffffffffffffffffffffffffffffffffffffff19166020820180517bffffffffffffffffffffffffffffffffffffffffffffffffffffffff8381831617835250505050610784565b5050565b6000808273ffffffffffffffffffffffffffffffffffffffff1663feaf968c6040518163ffffffff1660e01b815260040160a060405180830381865afa158015610741573d6000803e3d6000fd5b505050506040513d601f19601f820116820180604052508101906107659190610cfe565b5050509150506402540be4008161077c9190610b0f565b915050919050565b61079b8161079361079e6107bf565b63ffffffff16565b50565b60006a636f6e736f6c652e6c6f679050600080835160208501845afa505050565b610854819050919050565b828054828255906000526020600020908101928215610843579160200282015b828111156108425782518260006101000a81548173ffffffffffffffffffffffffffffffffffffffff021916908373ffffffffffffffffffffffffffffffffffffffff160217905550916020019190600101906107ea565b5b509050610850919061085e565b5090565b61085c610d79565b565b5b8082111561087757600081600090555060010161085f565b5090565b600080fd5b600073ffffffffffffffffffffffffffffffffffffffff82169050919050565b60006108ab82610880565b9050919050565b6108bb816108a0565b81146108c657600080fd5b50565b6000813590506108d8816108b2565b92915050565b6000602082840312156108f4576108f361087b565b5b6000610902848285016108c9565b91505092915050565b6000819050919050565b61091e8161090b565b82525050565b60006020820190506109396000830184610915565b92915050565b6000819050919050565b600061096461095f61095a84610880565b61093f565b610880565b9050919050565b600061097682610949565b9050919050565b60006109888261096b565b9050919050565b6109988161097d565b82525050565b60006020820190506109b3600083018461098f565b92915050565b6109c2816108a0565b82525050565b60006020820190506109dd60008301846109b9565b92915050565b6109ec8161090b565b81146109f757600080fd5b50565b600081359050610a09816109e3565b92915050565b600060208284031215610a2557610a2461087b565b5b6000610a33848285016109fa565b91505092915050565b7f4e487b7100000000000000000000000000000000000000000000000000000000600052603260045260246000fd5b7f4e487b7100000000000000000000000000000000000000000000000000000000600052604160045260246000fd5b600081905092915050565b50565b6000610ab5600083610a9a565b9150610ac082610aa5565b600082019050919050565b6000610ad682610aa8565b9150819050919050565b7f4e487b7100000000000000000000000000000000000000000000000000000000600052601160045260246000fd5b6000610b1a8261090b565b9150610b258361090b565b9250828202610b338161090b565b91508282048414831517610b4a57610b49610ae0565b5b5092915050565b7f4e487b7100000000000000000000000000000000000000000000000000000000600052601260045260246000fd5b6000610b8b8261090b565b9150610b968361090b565b925082610ba657610ba5610b51565b5b828204905092915050565b600081519050919050565b600082825260208201905092915050565b60005b83811015610beb578082015181840152602081019050610bd0565b60008484015250505050565b6000601f19601f8301169050919050565b6000610c1382610bb1565b610c1d8185610bbc565b9350610c2d818560208601610bcd565b610c3681610bf7565b840191505092915050565b60006040820190508181036000830152610c5b8185610c08565b9050610c6a6020830184610915565b9392505050565b600069ffffffffffffffffffff82169050919050565b610c9081610c71565b8114610c9b57600080fd5b50565b600081519050610cad81610c87565b92915050565b6000819050919050565b610cc681610cb3565b8114610cd157600080fd5b50565b600081519050610ce381610cbd565b92915050565b600081519050610cf8816109e3565b92915050565b600080600080600060a08688031215610d1a57610d1961087b565b5b6000610d2888828901610c9e565b9550506020610d3988828901610cd4565b9450506040610d4a88828901610ce9565b9350506060610d5b88828901610ce9565b9250506080610d6c88828901610c9e565b9150509295509295909350565b7f4e487b7100000000000000000000000000000000000000000000000000000000600052605160045260246000fdfea2646970667358221220c7e184fe131cbf71b9b6753e14ebef61a3c888c53124aa9460272de8053b004064736f6c634300081c0033",
  "devdoc": {
    "kind": "dev",
    "methods": {
      "fund()": {
        "details": "adds the sender to the funders list and stores the amount funded"
      },
      "withdraw()": {
        "details": "withdraws the funds to the owner address, resets the funders list and the amount funded"
      }
    },
    "title": "Learning Solidity: A contract for crowdfunding",
    "version": 1
  },
  "userdoc": {
    "kind": "user",
    "methods": {
      "fund()": {
        "notice": "Fund the contract"
      },
      "withdraw()": {
        "notice": "Withdraw the funds"
      }
    },
    "version": 1
  },
  "storageLayout": {
    "storage": [
      {
        "astId": 70,
        "contract": "contracts/FundMe.sol:FundMe",
        "label": "funders",
        "offset": 0,
        "slot": "0",
        "type": "t_array(t_address)dyn_storage"
      },
      {
        "astId": 74,
        "contract": "contracts/FundMe.sol:FundMe",
        "label": "addressToAmountFunded",
        "offset": 0,
        "slot": "1",
        "type": "t_mapping(t_address,t_uint256)"
      },
      {
        "astId": 79,
        "contract": "contracts/FundMe.sol:FundMe",
        "label": "priceFeed",
        "offset": 0,
        "slot": "2",
        "type": "t_contract(AggregatorV3Interface)45"
      }
    ],
    "types": {
      "t_address": {
        "encoding": "inplace",
        "label": "address",
        "numberOfBytes": "20"
      },
      "t_array(t_address)dyn_storage": {
        "base": "t_address",
        "encoding": "dynamic_array",
        "label": "address[]",
        "numberOfBytes": "32"
      },
      "t_contract(AggregatorV3Interface)45": {
        "encoding": "inplace",
        "label": "contract AggregatorV3Interface",
        "numberOfBytes": "20"
      },
      "t_mapping(t_address,t_uint256)": {
        "encoding": "mapping",
        "key": "t_address",
        "label": "mapping(address => uint256)",
        "numberOfBytes": "32",
        "value": "t_uint256"
      },
      "t_uint256": {
        "encoding": "inplace",
        "label": "uint256",
        "numberOfBytes": "32"
      }
    }
  }
}