{
  "address": "0xe7f1725E7734CE288F8367e1Bb143E90bb3F0512",
  "abi": [
    {
      "inputs": [
        {
          "internalType": "address",
          "name": "_priceFeed",
          "type": "address"
        }
      ],
      "stateMutability": "nonpayable",
      "type": "constructor"
    },
    {
      "inputs": [],
      "name": "FundMe__CallFailed",
      "type": "error"
    },
    {
      "inputs": [],
      "name": "FundMe__InvalidAmount",
      "type": "error"
    },
    {
      "inputs": [],
      "name": "FundMe__NotOwner",
      "type": "error"
    },
    {
      "stateMutability": "payable",
      "type": "fallback"
    },
    {
      "inputs": [],
      "name": "MINIMUM_USD",
      "outputs": [
        {
          "internalType": "uint256",
          "name": "",
          "type": "uint256"
        }
      ],
      "stateMutability": "view",
      "type": "function"
    },
    {
      "inputs": [],
      "name": "cheaperWithdraw",
      "outputs": [],
      "stateMutability": "payable",
      "type": "function"
    },
    {
      "inputs": [],
      "name": "fund",
      "outputs": [],
      "stateMutability": "payable",
      "type": "function"
    },
    {
      "inputs": [
        {
          "internalType": "address",
          "name": "_funder",
          "type": "address"
        }
      ],
      "name": "getAmountFunded",
      "outputs": [
        {
          "internalType": "uint256",
          "name": "",
          "type": "uint256"
        }
      ],
      "stateMutability": "view",
      "type": "function"
    },
    {
      "inputs": [
        {
          "internalType": "uint256",
          "name": "_index",
          "type": "uint256"
        }
      ],
      "name": "getFunder",
      "outputs": [
        {
          "internalType": "address",
          "name": "",
          "type": "address"
        }
      ],
      "stateMutability": "view",
      "type": "function"
    },
    {
      "inputs": [],
      "name": "getOwner",
      "outputs": [
        {
          "internalType": "address",
          "name": "",
          "type": "address"
        }
      ],
      "stateMutability": "view",
      "type": "function"
    },
    {
      "inputs": [],
      "name": "getPriceFeed",
      "outputs": [
        {
          "internalType": "contract AggregatorV3Interface",
          "name": "",
          "type": "address"
        }
      ],
      "stateMutability": "view",
      "type": "function"
    },
    {
      "inputs": [],
      "name": "withdraw",
      "outputs": [],
      "stateMutability": "nonpayable",
      "type": "function"
    },
    {
      "stateMutability": "payable",
      "type": "receive"
    }
  ],
  "transactionHash": "0xba6a9e1050df41a3f49a2a84329ae2fa88f5ec5e8a8fee52ac3cf174ce25b501",
  "args": [
    "0x5FbDB2315678afecb367f032d93F642f64180aa3"
  ],
  "numDeployments": 1,
  "solcInputHash": "292c7a9b5648f54389c5c95aeb827d60",
  "bytecode": "0x60a060405234801561001057600080fd5b5060405161100838038061100883398181016040528101906100329190610110565b80600260006101000a81548173ffffffffffffffffffffffffffffffffffffffff021916908373ffffffffffffffffffffffffffffffffffffffff1602179055503373ffffffffffffffffffffffffffffffffffffffff1660808173ffffffffffffffffffffffffffffffffffffffff16815250505061013d565b600080fd5b600073ffffffffffffffffffffffffffffffffffffffff82169050919050565b60006100dd826100b2565b9050919050565b6100ed816100d2565b81146100f857600080fd5b50565b60008151905061010a816100e4565b92915050565b600060208284031215610126576101256100ad565b5b6000610134848285016100fb565b91505092915050565b608051610e9b61016d600039600081816102e001528181610520015281816105b901526107a90152610e9b6000f3fe60806040526004361061007f5760003560e01c8063a48b45551161004e578063a48b455514610130578063b60d42881461016d578063be2693f014610177578063d7b4750c146101815761008e565b80633ccfd60b146100985780636b69a592146100af578063893d20e8146100da5780639e87a5cd146101055761008e565b3661008e5761008c6101be565b005b6100966101be565b005b3480156100a457600080fd5b506100ad6102de565b005b3480156100bb57600080fd5b506100c461050f565b6040516100d19190610a40565b60405180910390f35b3480156100e657600080fd5b506100ef61051c565b6040516100fc9190610a9c565b60405180910390f35b34801561011157600080fd5b5061011a610544565b6040516101279190610b16565b60405180910390f35b34801561013c57600080fd5b5061015760048036038101906101529190610b62565b61056e565b6040516101649190610a40565b60405180910390f35b6101756101be565b005b61017f6105b7565b005b34801561018d57600080fd5b506101a860048036038101906101a39190610bbb565b61086c565b6040516101b59190610a9c565b60405180910390f35b6802b5e3af16b18800006101fd600260009054906101000a900473ffffffffffffffffffffffffffffffffffffffff16346108b390919063ffffffff16565b1015610235576040517fe12c320e00000000000000000000000000000000000000000000000000000000815260040160405180910390fd5b6000339080600181540180825580915050600190039060005260206000200160009091909190916101000a81548173ffffffffffffffffffffffffffffffffffffffff021916908373ffffffffffffffffffffffffffffffffffffffff16021790555034600160003373ffffffffffffffffffffffffffffffffffffffff1673ffffffffffffffffffffffffffffffffffffffff16815260200190815260200160002081905550565b7f000000000000000000000000000000000000000000000000000000000000000073ffffffffffffffffffffffffffffffffffffffff163373ffffffffffffffffffffffffffffffffffffffff1614610363576040517f579610db00000000000000000000000000000000000000000000000000000000815260040160405180910390fd5b60005b60008054905081101561040857600080828154811061038857610387610be8565b5b9060005260206000200160009054906101000a900473ffffffffffffffffffffffffffffffffffffffff1690506000600160008373ffffffffffffffffffffffffffffffffffffffff1673ffffffffffffffffffffffffffffffffffffffff16815260200190815260200160002081905550508080600101915050610366565b50600067ffffffffffffffff81111561042457610423610c17565b5b6040519080825280602002602001820160405280156104525781602001602082028036833780820191505090505b5060009080519060200190610468929190610980565b5060003373ffffffffffffffffffffffffffffffffffffffff164760405161048f90610c77565b60006040518083038185875af1925050503d80600081146104cc576040519150601f19603f3d011682016040523d82523d6000602084013e6104d1565b606091505b505090508061050c576040517fa6139a6400000000000000000000000000000000000000000000000000000000815260040160405180910390fd5b50565b6802b5e3af16b188000081565b60007f0000000000000000000000000000000000000000000000000000000000000000905090565b6000600260009054906101000a900473ffffffffffffffffffffffffffffffffffffffff16905090565b6000600160008373ffffffffffffffffffffffffffffffffffffffff1673ffffffffffffffffffffffffffffffffffffffff168152602001908152602001600020549050919050565b7f000000000000000000000000000000000000000000000000000000000000000073ffffffffffffffffffffffffffffffffffffffff163373ffffffffffffffffffffffffffffffffffffffff161461063c576040517f579610db00000000000000000000000000000000000000000000000000000000815260040160405180910390fd5b6000808054806020026020016040519081016040528092919081815260200182805480156106bf57602002820191906000526020600020905b8160009054906101000a900473ffffffffffffffffffffffffffffffffffffffff1673ffffffffffffffffffffffffffffffffffffffff1681526020019060010190808311610675575b5050505050905060005b81518110156107445760008282815181106106e7576106e6610be8565b5b602002602001015190506000600160008373ffffffffffffffffffffffffffffffffffffffff1673ffffffffffffffffffffffffffffffffffffffff168152602001908152602001600020819055505080806001019150506106c9565b50600067ffffffffffffffff8111156107605761075f610c17565b5b60405190808252806020026020018201604052801561078e5781602001602082028036833780820191505090505b50600090805190602001906107a4929190610980565b5060007f000000000000000000000000000000000000000000000000000000000000000073ffffffffffffffffffffffffffffffffffffffff16476040516107eb90610c77565b60006040518083038185875af1925050503d8060008114610828576040519150601f19603f3d011682016040523d82523d6000602084013e61082d565b606091505b5050905080610868576040517fa6139a6400000000000000000000000000000000000000000000000000000000815260040160405180910390fd5b5050565b600080828154811061088157610880610be8565b5b9060005260206000200160009054906101000a900473ffffffffffffffffffffffffffffffffffffffff169050919050565b6000806108bf836108ef565b90506000670de0b6b3a764000085836108d89190610cbb565b6108e29190610d2c565b9050809250505092915050565b6000808273ffffffffffffffffffffffffffffffffffffffff1663feaf968c6040518163ffffffff1660e01b815260040160a060405180830381865afa15801561093d573d6000803e3d6000fd5b505050506040513d601f19601f820116820180604052508101906109619190610dea565b5050509150506402540be400816109789190610cbb565b915050919050565b8280548282559060005260206000209081019282156109f9579160200282015b828111156109f85782518260006101000a81548173ffffffffffffffffffffffffffffffffffffffff021916908373ffffffffffffffffffffffffffffffffffffffff160217905550916020019190600101906109a0565b5b509050610a069190610a0a565b5090565b5b80821115610a23576000816000905550600101610a0b565b5090565b6000819050919050565b610a3a81610a27565b82525050565b6000602082019050610a556000830184610a31565b92915050565b600073ffffffffffffffffffffffffffffffffffffffff82169050919050565b6000610a8682610a5b565b9050919050565b610a9681610a7b565b82525050565b6000602082019050610ab16000830184610a8d565b92915050565b6000819050919050565b6000610adc610ad7610ad284610a5b565b610ab7565b610a5b565b9050919050565b6000610aee82610ac1565b9050919050565b6000610b0082610ae3565b9050919050565b610b1081610af5565b82525050565b6000602082019050610b2b6000830184610b07565b92915050565b600080fd5b610b3f81610a7b565b8114610b4a57600080fd5b50565b600081359050610b5c81610b36565b92915050565b600060208284031215610b7857610b77610b31565b5b6000610b8684828501610b4d565b91505092915050565b610b9881610a27565b8114610ba357600080fd5b50565b600081359050610bb581610b8f565b92915050565b600060208284031215610bd157610bd0610b31565b5b6000610bdf84828501610ba6565b91505092915050565b7f4e487b7100000000000000000000000000000000000000000000000000000000600052603260045260246000fd5b7f4e487b7100000000000000000000000000000000000000000000000000000000600052604160045260246000fd5b600081905092915050565b50565b6000610c61600083610c46565b9150610c6c82610c51565b600082019050919050565b6000610c8282610c54565b9150819050919050565b7f4e487b7100000000000000000000000000000000000000000000000000000000600052601160045260246000fd5b6000610cc682610a27565b9150610cd183610a27565b9250828202610cdf81610a27565b91508282048414831517610cf657610cf5610c8c565b5b5092915050565b7f4e487b7100000000000000000000000000000000000000000000000000000000600052601260045260246000fd5b6000610d3782610a27565b9150610d4283610a27565b925082610d5257610d51610cfd565b5b828204905092915050565b600069ffffffffffffffffffff82169050919050565b610d7c81610d5d565b8114610d8757600080fd5b50565b600081519050610d9981610d73565b92915050565b6000819050919050565b610db281610d9f565b8114610dbd57600080fd5b50565b600081519050610dcf81610da9565b92915050565b600081519050610de481610b8f565b92915050565b600080600080600060a08688031215610e0657610e05610b31565b5b6000610e1488828901610d8a565b9550506020610e2588828901610dc0565b9450506040610e3688828901610dd5565b9350506060610e4788828901610dd5565b9250506080610e5888828901610d8a565b915050929550929590935056fea26469706673582212200f98acee3e9d95bba3d83bd5bd638be2205a408f848cb90981928b79133c6cb464736f6c634300081c0033",
  "devdoc": {
    "kind": "dev",
    "methods": {
      "fund()": {
        "details": "adds the sender to the funders list and stores the amount funded"
      },
      "withdraw()": {
        "details": "withdraws the funds to the owner address, resets the funders list and the amount funded"
      }
    },
    "title": "Learning Solidity: A contract for crowdfunding",
    "version": 1
  },
  "userdoc": {
    "kind": "user",
    "methods": {
      "fund()": {
        "notice": "Fund the contract"
      },
      "withdraw()": {
        "notice": "Withdraw the funds"
      }
    },
    "version": 1
  },
  "storageLayout": {
    "storage": [
      {
        "astId": 70,
        "contract": "contracts/FundMe.sol:FundMe",
        "label": "s_funders",
        "offset": 0,
        "slot": "0",
        "type": "t_array(t_address)dyn_storage"
      },
      {
        "astId": 74,
        "contract": "contracts/FundMe.sol:FundMe",
        "label": "s_addressToAmountFunded",
        "offset": 0,
        "slot": "1",
        "type": "t_mapping(t_address,t_uint256)"
      },
      {
        "astId": 79,
        "contract": "contracts/FundMe.sol:FundMe",
        "label": "s_priceFeed",
        "offset": 0,
        "slot": "2",
        "type": "t_contract(AggregatorV3Interface)45"
      }
    ],
    "types": {
      "t_address": {
        "encoding": "inplace",
        "label": "address",
        "numberOfBytes": "20"
      },
      "t_array(t_address)dyn_storage": {
        "base": "t_address",
        "encoding": "dynamic_array",
        "label": "address[]",
        "numberOfBytes": "32"
      },
      "t_contract(AggregatorV3Interface)45": {
        "encoding": "inplace",
        "label": "contract AggregatorV3Interface",
        "numberOfBytes": "20"
      },
      "t_mapping(t_address,t_uint256)": {
        "encoding": "mapping",
        "key": "t_address",
        "label": "mapping(address => uint256)",
        "numberOfBytes": "32",
        "value": "t_uint256"
      },
      "t_uint256": {
        "encoding": "inplace",
        "label": "uint256",
        "numberOfBytes": "32"
      }
    }
  }
}